:100000000C94E1000C94431F0C941C1F0C94F51EDF
:100010000C94CE1E0C9418010C9418010C94A71E7D
:100020000C9418010C9438230C946A1F0C94E71F4D
:100030000C94B0230C9418010C9418010C94180122
:100040000C9418010C9418010C9418010C941801CC
:100050000C9418010C9418010C9418010C945D1E5A
:100060000C9418010C9418010C9418010C941801AC
:100070000C9418010C9418010C9418010C9418019C
:100080000C9418010C9418010C9418010C9418018C
:100090000C9419220C9418010C9418010C9418015A
:1000A0000C9418010C9418010C9418016364696E87
:1000B0006F70737578585B00080B00020202000035
:1000C00009040000010202000005240010010524BB
:1000D000010101042402060524060001070581032D
:1000E00010004009040100020A0000000705020296
:1000F00040000007058302400000040309041201C8
:100100000002EF0201404F1B0492000101020301B3
:10011000537061726B46756E00537061726B4675F9
:100120006E2050726F204D6963726F0000000000F6
:10013000240027002A002D003000000000002500C8
:1001400028002B002E0031000000000023002600B4
:1001500029002C002F0004040404040304050202F7
:100160000202040302020202060606060606040450
:1001700002020204040408020110408040102040E2
:10018000804080080204018040201002011080108D
:10019000204040200000000200090F00000304017D
:1001A000000C000000000000000000000000000043
:1001B00000001F1C1F1E1F1E1F1F1E1F1E00C72307
:1001C000F42711241FBECFEFDAE0DEBFCDBF84B726
:1001D00080934E0514BE0FB6F894A89580916000E8
:1001E000886180936000109260000FBE11E0A0E073
:1001F000B1E0E6E4F2E602C005900D92A83DB10739
:10020000D9F725E0A8EDB1E001C01D92AE34B207E8
:10021000E1F710E0C0EED0E004C02197FE010E949B
:10022000142BCF3DD107C9F70E942E240C94163110
:100230000C94000091E090936004809382041092EB
:10024000610410928304089583E08093E900809113
:10025000F200882319F08AE38093E8000895CF9292
:10026000DF92EF92FF920F931F93CF93DF93DC0106
:100270008AEF809334038FEF8093350311968C912E
:1002800011978093360312962D913C911397803CE1
:1002900021F4220F331F220F331F2F3F310558F552
:1002A0002093370391E0981B921B48E353E08D01A4
:1002B0000C5F1F4FFA016A011296ED90FC901397A4
:1002C000B601641B750B6E157F0518F1BA01620F3C
:1002D000731FE617F70721F59083CA01820F931F5A
:1002E00083539340DF91CF911F910F91FF90EF9037
:1002F000DF90CF9008959FEF9093370392E0981B83
:1003000030933803931B20933903921B4AE353E045
:10031000CECFE80189918E01E60189936E01CCCFA1
:100320008191981BD6CF90913303809132032FEFA8
:100330003FEF981748F4E92FF0E0EE5EFC4F208184
:1003400030E09F5F90933303C90108959091330388
:10035000809132032FEF3FEF981748F4E92FF0E038
:10036000EE5EFC4F208130E09F5F90933303C90124
:100370000895FC0180910903882311F13FB7F89497
:1003800082E08093E9002091F200822F90E018161D
:10039000190614F481E090E0882339F0289844E6A7
:1003A000409308034091F1004083222339F02091CB
:1003B000F200211103C02BE62093E8003FBF08950F
:1003C0008FEF9FEF08952FB7F89483E08093E900B3
:1003D0009091E800892F807295FF04C09091F200FF
:1003E00080E4891B2FBF08958091F40281110DC014
:1003F00082E08093F00284E08093F1021092F30295
:100400001092F20281E08093F40280EF92E008956E
:1004100081508F3008F047C0E82FF0E0EE5EFD4FCE
:100420000C94142B2F023302210227022B025302B9
:100430005302530236023C02400244024A02530273
:100440004E02809180008F77809380000895809184
:1004500080008F7DF9CF80918000877FF5CF84B5B4
:100460008F7784BD089584B58F7DFBCF80919000F8
:100470008F77809390000895809190008F7DF9CFC1
:1004800080919000877FF5CF8091C0008F77809317
:10049000C00008958091C0008F7DF9CF8091C20087
:1004A000877F8093C2000895CF93DF93E6E9F1E060
:1004B0008491E7E7F1E0D491E8E5F1E0C491CC2341
:1004C000A1F081110E940802EC2FF0E0EE0FFF1F57
:1004D000E85BFE4FA591B491EC91ED2381E090E0B3
:1004E00009F480E0DF91CF91089580E090E0FACFA9
:1004F0001F93CF93DF93282F30E0F901EC56FE4F86
:100500008491F901EB58FE4FD491F901EA5AFE4F5C
:10051000C491CC23A9F0162F81110E940802EC2F60
:10052000F0E0EE0FFF1FE65CFE4FA591B4918FB790
:10053000F894EC91111108C0D095DE23DC938FBFA5
:10054000DF91CF911F910895DE2BF8CFCF93DF93EA
:1005500090E0FC01EB58FE4F24918A5A9E4FFC011B
:1005600084918823C9F090E0880F991FFC01E45D15
:10057000FE4FA591B491FC01E65CFE4FC591D4916C
:1005800061110DC09FB7F8948C91209582238C93B4
:100590008881282328839FBFDF91CF9108956230FF
:1005A00051F49FB7F8943C91822F809583238C93CC
:1005B000E8812E2BEFCF8FB7F894EC912E2B2C9354
:1005C0008FBFEACF0F931F93CF93DF93EC01162FCA
:1005D000042F1B821A8288EE93E0A0E0B0E08C83A7
:1005E0009D83AE83BF838DE391E0998388831F8AC7
:1005F0001E8A198E188E1B8E1A8E1D8E1C8E6E8D65
:100600006E7F6D7F6E8F6695617081E06827842FA5
:100610000E94780261E0802F0E94A602802F90E065
:10062000FC01EB58FE4FE491E88BFC01EA5AFE4FC7
:10063000E491F0E0EE0FFF1FE65CFE4F8591949190
:100640009A8B898B60E0812F0E94A6028E8D81FD9E
:1006500004C061E0812F0E9478021C87812F90E006
:10066000FC01EB58FE4FE491ED87FC01EA5AFE4F86
:10067000E491F0E0EE0FFF1FE85BFE4F859194914F
:100680009F878E87DF91CF911F910F9108953FB77C
:10069000F8948091EC029091ED02A091EE02B0915D
:1006A000EF0226B5A89B05C02F3F19F00196A11DAA
:1006B000B11D3FBFBA2FA92F982F8827BC01CD01AC
:1006C000620F711D811D911D43E0660F771F881F0A
:1006D000991F4A95D1F708958F929F92AF92BF923A
:1006E000CF92DF92EF92FF926B017C010E94470351
:1006F0004B015C01C114D104E104F104B9F00E9482
:100700004703681979098A099B09683E7340810586
:10071000910580F321E0C21AD108E108F10888EEC2
:10072000880E83E0981EA11CB11CE4CFFF90EF90CF
:10073000DF90CF90BF90AF909F908F900895CF9310
:10074000C0912B016AE070E080E090E00E946C03B1
:1007500081E0C11101C080E0CF9108952FB7F894D6
:100760006091E8027091E9028091EA029091EB02B7
:100770002FBF08950895089508954091BA025091A9
:10078000BB022091B8023091B90242175307B4F46A
:100790009091E8009570E1F39091E80092FD19C006
:1007A0008093F1008091BA029091BB0201968F7301
:1007B0009927892B19F48EEF8093E8008091BA0273
:1007C0009091BB0201969093BB028093BA0281E0A4
:1007D000089580E00895EF92FF920F931F93CF93B7
:1007E000DF93F82E192FE62E042F81E0860F880F55
:1007F0000E94BD0383E00E94BD03CF2DD12FEC0EDC
:10080000FD2EF11CCE15DF05B9F007FF13C0FE0168
:1008100084910E94BD03182F80E00E94BD038123B4
:1008200021968111EFCFDF91CF911F910F91FF9012
:10083000EF9008958881EDCF81E0F5CFDF92EF92C0
:10084000FF920F931F93CF93DF93D82E8A01EB0172
:100850007B01E40EF51ECE15DF0559F0D7FE12C060
:10086000FE0184910E94BD0321968111F4CF0FEF08
:100870001FEFC801DF91CF911F910F91FF90EF9073
:10088000DF9008958881EECF0F931F93CF93DF936E
:100890001F92CDB7DEB782E0898342E450E068EB77
:1008A00070E080E80E941E040E94F401DC011296B0
:1008B0000D911C910115110589F0D801ED91FC9164
:1008C0000280F381E02DBE016F5F7F4FC801099563
:1008D00097FD04C0F80100851185ECCF89810F9048
:1008E000DF91CF911F910F910895615030F02091C9
:1008F000F100FC0120830196F8CF289884E68093CC
:1009000008030895AF92BF92CF92DF92EF92FF92C9
:100910000F931F93CF93DF936C017B018B01040F27
:10092000151FEB015E01AE18BF08C017D10759F0C3
:100930006991D601ED91FC910190F081E02DC60105
:100940000995892B79F7C501DF91CF911F910F91FF
:10095000FF90EF90DF90CF90BF90AF9008958F926F
:100960009F92AF92BF92CF92DF92EF92FF920F933E
:100970001F93CF93DF936C017B018A0180912B0140
:10098000882309F45CC080910903882309F457C0C7
:100990008091BE0280FF05C08091E000826080935C
:1009A000E000E801B12C8AEFA82E93E0892E2AE31B
:1009B000922E209711F4BB20D9F10E94E3018111FE
:1009C0000AC0AA94AA20D9F161E070E080E090E02A
:1009D0000E946C03EECF8C171D0611F00CF08C2FCB
:1009E0009FB7F8948092E9002091E80025FD02C0AD
:1009F0009FBFDFCF282F30E0C21BD30BF701815000
:100A000020F041914093F100FACFE20EF31EBB209B
:100A100021F09092E800B12CEBCF8091E80085FDA9
:100A2000E7CF9092E800BB24B394209709F3F3CF6B
:100A30005D9884E68093BD02101611063CF081E0BB
:100A400090E0F6019383828310E000E0C801DF911B
:100A5000CF911F910F91FF90EF90DF90CF90BF90BB
:100A6000AF909F908F900895CF93DF931F92CDB753
:100A7000DEB76983DC01ED91FC910280F381E02D0A
:100A800041E050E0BE016F5F7F4F09950F90DF910D
:100A9000CF9108950C9424010E94E30190E0089501
:100AA000CF93DF931F92CDB7DEB7FC018485958588
:100AB00097FD08C02FEF3FEF358724870F90DF9118
:100AC000CF910895CE0101960E94B901019719F4C2
:100AD000898190E0F3CF8FEF9FEFF0CF0F931F93BB
:100AE000CF93DF931F92CDB7DEB78C01FC018485D5
:100AF000958597FF0BC0CE0101960E94B901019721
:100B000071F4898190E0F80195878487F8018485E4
:100B100095850F90DF91CF911F910F9108958FEFE1
:100B20009FEFF1CFFC018485958597FD0BC09FB7A2
:100B3000F89482E08093E9008091F2009FBF90E0FA
:100B4000019608959FB7F89482E08093E900809120
:100B5000F2009FBF90E00895DC01FB01460F571F94
:100B6000E417F50718F090E080E008956281CF0166
:100B7000039620813181322723273227A217B3071A
:100B8000A1F3FC01E60FF11DEBCFCF93DF93EC0156
:100B9000CB01FA0142815381BF016C5F7F4F0E94FC
:100BA000AC050097A9F0FC01319720812D5F3297A9
:100BB000DE01822F90E09D012C1B3D0B2817390789
:100BC00024F081E0DF91CF91089521912D93F3CF0F
:100BD00080E0F8CFFB01A4EBB2E023812C932281CB
:100BE00011962C931197218112962C9312972081A4
:100BF00013962C9313974D915D916D917C91DC012F
:100C00004D935D936D937C931397CF010496089554
:100C1000EF92FF920F931F93CF93DF937C01D0E06D
:100C2000C0E0042F10E0C017D1073CF0DF91CF9156
:100C30001F910F91FF90EF900895C7010E94EA0560
:100C4000BC01219684E0E80EF11CEDCF20919102C9
:100C5000260F3327331F21323105ECF420915A043B
:100C6000FC0190E080E0243069F082E00895A091DA
:100C700091022191AC014F585D4FA40FB52FB11DCA
:100C80002C930196861798F380919102680F6093D8
:100C9000910280E0089581E0089510925A0481E065
:100CA000809359041092340461E082E00E9478023B
:100CB00061E083E00E947802E9EBF0E080818E7FC2
:100CC000808380818D7F808380E28093B80085E47B
:100CD0008093BC000895CF93DF9391E09093C0027E
:100CE0008823B9F0C091B800D091BA008091BC00BF
:100CF0008A7B8093BC0060E082E00E94780260E022
:100D000083E00E9478020E944D06D093BA00C093FF
:100D1000B800DF91CF9108958F929F92AF92BF92CA
:100D2000CF92DF92EF92FF920F931F93CF93DF93B7
:100D3000D0918304D13208F0D7C0182FC09182041B
:100D40000E9447036B017C0180915A0481116BC0A2
:100D500082E080935A04109359048FEF80935804D3
:100D600010925704D0935604A2E6B4E0E6E3F4E010
:100D700080E0D81391C01092350480913504CC0FD7
:100D8000C82BC093350480913404813009F088C0A9
:100D9000109234040E9447036B017C01809135045A
:100DA0008093BB0080915C0490915D04A0915E04EF
:100DB000B0915F04892B8A2B8B2BA1F00E944703F3
:100DC00000915C0410915D0420915E0430915F04F9
:100DD0006C197D098E099F0906171707280739071F
:100DE00008F442C08091BC0083FDD8CF85EC80938D
:100DF000BC000E9447036B017C0180915A04823041
:100E000009F450C0809158048F3F09F46FC080915D
:100E10005804803209F46CC080915804803309F47E
:100E200069C084E026C080915C0490915D04A0912B
:100E30005E04B0915F04892B8A2B8B2B09F484CF3D
:100E40000E94470380905C0490905D04A0905E0433
:100E5000B0905F046C197D098E099F09861697066C
:100E6000A806B90608F070CF80915B040E946B065B
:100E700085E0109261041092830410926004DF9167
:100E8000CF911F910F91FF90EF90DF90CF90BF9087
:100E9000AF909F908F9008959D9191938F5F69CFB0
:100EA00085EEA5CF80915C0490915D04A0915E04D5
:100EB000B0915F04892B8A2B8B2B09F49ECF0E9463
:100EC000470300915C0410915D0420915E04309111
:100ED0005F046C197D098E099F09061717072807FB
:100EE000390708F08ACFC0CF81E0C3CF80E0C1CFFF
:100EF00082E0BFCF83E0BDCFCF93DF93EA01DC0177
:100F000011968D919C91DC01ED91FC910280F38111
:100F1000E02D0995C817D90729F481E00E948C06B5
:100F200091E0811190E0892FDF91CF91089581E0C8
:100F30000C948C060895E091330380913203E817F6
:100F400030F4F0E0EE5EFC4F808190E008958FEF8A
:100F50009FEF08958091320390913303891B990B81
:100F60000895CF92DF92EF92FF920F931F93CF934A
:100F7000DF937C01CB018A0120916004222389F058
:100F8000EB016B01C40ED51ECC15DD0569F069912E
:100F9000D701ED91FC910190F081E02DC7010995F9
:100FA000F3CF642F0E942606C801DF91CF911F91D5
:100FB0000F91FF90EF90DF90CF900895CF93DF9344
:100FC0001F92CDB7DEB76983209160042223F9F028
:100FD00020918304203258F021E030E0FC0133837B
:100FE000228390E080E00F90DF91CF91089580916F
:100FF0006104E82FF0E0EE59FB4F998190838F5FF9
:10100000809361048093830481E090E0ECCF61E001
:10101000CE0101960E942606F7CF1F93CF93DF9350
:10102000182FD62FC42F86E30E941A01612F84ED5A
:1010300094E00E94DE076D2F84ED94E00E94DE07AD
:101040006C2F84ED94E00E94DE07DF91CF911F9119
:101050000C949707682F84ED94E00C94DE07CF93EF
:10106000DF93D82FC62F8091E0040E941A016D2FC4
:1010700084ED94E00E94DE076C2F84ED94E00E94E2
:10108000DE07DF91CF910C94970720916F0230918A
:1010900070022817390771F490916E0280916D02E9
:1010A000981741F0E0916E02F0E0E35DFD4F808122
:1010B00090E008958FEF9FEF0895EF92FF920F93C6
:1010C0001F93CF93DF93DC015C96ED90FC905D97CE
:1010D000E114F10479F481E090E013969C938E93EF
:1010E000129790E080E0DF91CF911F910F91FF90D8
:1010F000EF9008955196ED91FC91529750968C91F6
:101100005097982F90950FB75E962C915E97122F5F
:10111000127021FD6095F8942081112319F1282B7C
:101120002083E7012197F1F728E0462F50E0308136
:1011300060FF1AC0382B3083E7012197F1F7BA011D
:1011400075956795215089F7112381F08081892356
:1011500080830FBF5C968D919C910197F1F781E0A0
:1011600090E0C1CF2923DCCF3923E5CF9081892BB3
:10117000EFCF20916F02309170022817390761F488
:1011800080916D0220916E0290E0805C9F4F821BE7
:1011900091098F739927089590E080E00895209138
:1011A0006F023091700228173907B9F490916E02DE
:1011B00080916D02981789F0E0916E02F0E0E35D96
:1011C000FD4F808120916E0230E02F5F3F4F2F73E3
:1011D000332720936E0290E008958FEF9FEF0895DC
:1011E000E0916F02F0917002E817F90769F4A389A2
:1011F000B4899C918589809589238C931092700283
:1012000010926F0281E0089580E00895CF93DF93FC
:10121000EC018A8D9B8D892B01F180916F02909159
:1012200070028C179D07C9F0009711F00E94F0081A
:101230008E8D8E7F8E8F10926D0210926E02D093E3
:101240007002C0936F02EB89FC8980819D89892B94
:10125000808381E0DF91CF91089580E0FBCFFC0196
:10126000138E128E118E108E178A168A81E390E0EB
:10127000958F848F848528EF280F243048F092EFD3
:10128000980F943028F096EE980F933008F049C0EC
:1012900047E050E0578B468B4FE250E0518F408F34
:1012A0004BE150E0538F428F243050F092EF980F73
:1012B000943030F096EE980FB0E0A0E0933010F448
:1012C000A8E6B0E09C91243048F022EF280F2430AB
:1012D00028F08A51B0E0A0E0833010F4A8E6B0E036
:1012E00091609C93848598EF980F943040F022EFA2
:1012F000280F243020F026EE280F2330A8F42BE608
:1013000030E0348B238B943090F48450990B91E02F
:1013100001C0990F8A95EAF7958B848D958D019779
:10132000F1F7CF010C94060930E020E0EACF98E015
:101330008E3091F392E08F3079F394E0803161F355
:1013400091E0813149F38651990BE1CF90E080E043
:1013500008954115510529F4EAE7F0E080818F777F
:1013600080836A307105B9F0CB01880F991F880F0F
:10137000991F807267706860682B88E10FB6F894D7
:10138000A895809360000FBE60936000E0E6F0E0F7
:10139000808180648083232BB1F483B7817F846054
:1013A00083BFF89483B7816083BF7894889583B7AF
:1013B0008E7F83BF7894452B29F4EAE7F0E08081A3
:1013C00080688083089583B7817F846083BFF894A9
:1013D00083B7816083BF7894889583B78E7F83BFFE
:1013E0007894E9CFFF920F931F93CF93DF93CDB7FC
:1013F000DEB7C450D1400FB6F894DEBF0FBECDBFEC
:101400008C01F62E0E940609FA821C821B82CE01F4
:1014100001960E942F01AC0164E373E0C8010E94B1
:101420008204CC5FDE4F0FB6F894DEBF0FBECDBF97
:10143000DF91CF911F910F91FF9008954F925F928E
:101440006F927F92AF92BF92CF92DF92EF92FF9214
:101450000F931F93CF93DF93EC018B01E881F98108
:101460000284F385E02D0995F8018083E881F981F4
:101470000284F385E02DCE010995F8018183E8818E
:10148000F9810284F385E02DCE0109956C01F80104
:10149000938382838F3F910598F581E0C114D10435
:1014A00081F1580184E0A80EB11CF12CE12C0E94BE
:1014B000AE03688779878A879B87E881F9810284F0
:1014C000F385E02DCE01099597FF2AC00E94AE0357
:1014D000488459846A847B8464197509860997094C
:1014E0004C805D806E807F8064157505860597054C
:1014F00020F381E0F801228133812E153F0509F0A8
:1015000080E0DF91CF911F910F91FF90EF90DF90DE
:10151000CF90BF90AF907F906F905F904F90089565
:10152000F50181935F01FFEFEF1AFF0ACE14DF048C
:1015300009F0BDCFDECF6F927F928F929F92AF92D4
:10154000BF92CF92DF92EF92FF920F931F93CF93B0
:10155000DF93EC013B0169017A010E94AE034B016C
:101560005C01CE010E94060910E000E080E090E0FE
:10157000DC01C816D906EA06FB0628F4C114D1041A
:10158000E104F104A1F5CE010E94B908181619066C
:1015900004F50F5F1F4F013081E0180740F5CE01C1
:1015A0000E94CF088A3F79F7B301CE010E941E0A3C
:1015B000882349F3DF91CF911F910F91FF90EF9016
:1015C000DF90CF90BF90AF909F908F907F906F9063
:1015D0000895C114D104E104F10449F00E94AE035E
:1015E000DC01CB0188199909AA09BB09C2CF80E0A7
:1015F000E1CF0F931F93CF93DF932FEFFC01208355
:101600000E942F018C01C4E3D3E0CE0184539340A8
:101610008017910734F4699186E095E00E945D0897
:10162000F4CFDF91CF911F910F910895CF93C82FE1
:1016300020E030E84BEB54E460910C0170910D0117
:1016400080910E0190910F010E94DA2A18163CF445
:1016500061E086E00E94780280E0CF91089560E02A
:10166000C11101C061E086E00E94780281E0F5CFFF
:10167000CF93C82F20E030E84BEB54E460910C018D
:1016800070910D0180910E0190910F010E94DA2A54
:10169000181624F45D9A80E0CF910895CC2319F0B8
:1016A0005D9881E0F9CF5D9AFCCF0F931F93CF93A4
:1016B000DF930E94AE0300910E0310910F0320915F
:1016C000100330911103601B710B820B930BC0E070
:1016D000613177428105910508F446C080910C0381
:1016E00090910D03C29708F045C080910A03909134
:1016F0000B03019690930B0380930A0380910A03D6
:1017000090910B03C0E0039708F1CAE0D0E081E0BC
:101710000E94380B64E170E080E090E00E946C036E
:1017200080E00E94380B81E00E94160B64E170E0BB
:1017300080E090E00E946C0380E00E94160B2197ED
:1017400031F710920B0310920A03C1E010920D03BF
:1017500010920C030E94AE0360930E0370930F036C
:1017600080931003909311038C2FDF91CF911F91E1
:101770000F91089510920B0310920A03BFCFCF93DD
:10178000DF93EC018330910509F4ACC068F481303B
:101790009105B1F1029709F457C0D0932301C0938A
:1017A0002201DF91CF9108958530910509F4ACC0F5
:1017B00008F4FCC0069789F780E00E94380B61E0CE
:1017C0008BE00E94780285E295E00E94F00864EFC9
:1017D00071E080E090E00E946C0360E08BE00E948A
:1017E000780281E090E090931C0280931B0285E2D6
:1017F00095E00E942F0985E295E00E940609F2C05B
:101800000E949F03811106C08FEF9FEF9093910478
:101810008093900480911B0290911C02019709F41F
:10182000BCCF60E08BE00E94780281E090E0909372
:101830001C0280931B0285E295E00E942F0985E23D
:1018400095E00E940609A9CF0E949F03811106C05E
:101850008FEF9FEF909391048093900480911B02EF
:1018600090911C02892BC1F460E08BE00E94780209
:1018700081E090E090931C0280931B0285E295E04A
:101880000E942F0985E295E00E94060968EC70E04D
:1018900080E090E00E946C0380911B0290911C02FA
:1018A000029791F060E170E085E295E00E94F20914
:1018B00064E170E080E090E00E946C0382E090E0E0
:1018C00090931C0280931B0281E00E94380B0E94BF
:1018D000AE0360930E0370930F03809310039093F5
:1018E00011035BCF80E00E94380B0E94240161E06D
:1018F0008BE00E94780210921C0210921B0285E27B
:1019000095E00E94F00849CF0E949F03811106C014
:101910008FEF9FEF909391048093900480911B022E
:1019200090911C02892BC1F460E08BE00E94780248
:1019300081E090E090931C0280931B0285E295E089
:101940000E942F0985E295E00E94060968EC70E08C
:1019500080E090E00E946C0380911B0290911C0239
:10196000029791F060E170E085E295E00E94F20953
:1019700064E170E080E090E00E946C0382E090E01F
:1019800090931C0280931B020E94AE0360930E038F
:1019900070930F03809310039093110361E085E02F
:1019A0000E94780281E00E94380BF7CE80E00E940E
:1019B000380B80E00E94160B0E949F03811106C025
:1019C0008FEF9FEF909391048093900461E08BE000
:1019D0000E94780210921C0210921B0285E295E090
:1019E0000E94F00860E085E00E947802D6CE8F92D7
:1019F0009F92AF92BF92CF92DF92EF92FF920F939E
:101A00001F93CF93DF93D62FC42F122F0E9447032B
:101A10006B017C0180915A04811168C0C13208F0C9
:101A2000C0E281E080935A04109359049FEF909391
:101A30005804109257049C0F9093560480933504D9
:101A400080913504DD0FD82BD09335048091340478
:101A5000813009F083C0109234040E9447036B0167
:101A60007C01809135048093BB0080915C0490914F
:101A70005D04A0915E04B0915F04892B8A2B8B2BAF
:101A8000A1F00E94470300915C0410915D04209135
:101A90005E0430915F046C197D098E099F09061759
:101AA00017072807390708F442C08091BC0083FD5E
:101AB000D8CF85EC8093BC000E9447036B017C016A
:101AC00080915A04813009F44BC0809157048C17DF
:101AD00010F4C0915704E6E3F4E0A2E1B3E080E043
:101AE0008C1751F191919D938F5FFACF80915C0497
:101AF00090915D04A0915E04B0915F04892B8A2BC4
:101B00008B2B09F487CF0E94470380905C04909050
:101B10005D04A0905E04B0905F046C197D098E098D
:101B20009F0986169706A806B90608F073CF80911C
:101B30005B040E946B06C0E010923303C093320333
:101B40008C2FDF91CF911F910F91FF90EF90DF903D
:101B5000CF90BF90AF909F908F90089585EEAACFC1
:101B600080915C0490915D04A0915E04B0915F044B
:101B7000892B8A2B8B2B09F4A3CF0E94470300915A
:101B80005C0410915D0420915E0430915F046C1937
:101B90007D098E099F09061717072807390708F0DE
:101BA0008FCFC5CFFF920F931F93CF93DF93F82E64
:101BB0008B01EA0186E30E941A016F2D84ED94E007
:101BC0000E94DE070E94970721E042E066E384ED71
:101BD00094E00E94F70C0E94A601F80180830E9405
:101BE000A6018883DF91CF911F910F91FF900895F7
:101BF000CF93DF9300D0CDB7DEB71A821982AE0142
:101C00004F5F5F4FBE016E5F7F4F82E00E94D20D3B
:101C1000AA8180E1A89FD0011124898190E024E06D
:101C2000959587952A95E1F7A82BB92B20E533ECFC
:101C30000E941A2B2FEF3FE040E050E00E943A292B
:101C4000CA01B9010E941A2820E030E44CE156E4B0
:101C50000E94392A0F900F90DF91CF910895CF9273
:101C6000DF92EF92FF92CF93DF9300D0CDB7DEB734
:101C70001A821982AE014F5F5F4FBE016E5F7F4FC8
:101C800084E00E94D20D698170E090E080E00E94C3
:101C90001A2820E030E040E85BE30E9479286B01DD
:101CA0007C016A8170E090E080E00E941A289B012C
:101CB000AC01C701B6010E94CD290F900F90DF91B2
:101CC000CF91FF90EF90DF90CF9008951F93CF9327
:101CD000DF93182FC0EED4E088810E941A01612F93
:101CE00084ED94E00E94DE070E94970788810E949D
:101CF0001A0121E042E0688184ED94E00E94F70C33
:101D00000E94A601EC010E94A60120E0C22BD82B64
:101D10000E949707CE01DF91CF911F9108951F93E5
:101D2000CF93DF93182FC0EED4E088810E941A0170
:101D3000612F84ED94E00E94DE070E94970788815E
:101D40000E941A0121E041E0688184ED94E00E9444
:101D5000F70C0E94A601C82F0E9497078C2FDF91D5
:101D6000CF911F910895FC0101900020E9F7319770
:101D7000AF01481B590BBC0184E894E00C94AF04FC
:101D80008F929F92AF92BF920F931F93CF93DF9347
:101D9000CDB7DEB7A1970FB6F894DEBF0FBECDBFAB
:101DA00019A2423008F44AE08E010F5D1F4F842EC5
:101DB000912CB12CA12CA50194010E949B29E62F06
:101DC000B901CA01EA30F4F4E05DD801EE938D0167
:101DD000232B242B252B79F790E080E0109719F026
:101DE000CD010E94B30EA1960FB6F894DEBF0FBED0
:101DF000CDBFDF91CF911F910F91BF90AF909F907A
:101E00008F900895E95CE1CFCF93DF93D0E0C0E0FD
:101E1000009719F00E94B30EEC018FE691E00E944A
:101E2000B30E8C0F9D1FDF91CF910895FC0181812E
:101E30008A3619F08C3691F0089582E791E00E947D
:101E4000B30E4AE065E070E080E090E00E94C00ED2
:101E50008FE691E00E94B30E0C94240187E791E095
:101E60000E94B30E8BE791E00E94040FF5CF0F9311
:101E70001F93CF93DF93EC0188819981009759F0EC
:101E80002A813B812617370730F081E0DF91CF911F
:101E90001F910F9108958B016F5F7F4F0E94382D26
:101EA000009759F0998388831B830A832C813D8195
:101EB000232B59F7FC011082E8CF80E0E7CFEF92A7
:101EC000FF920F931F93CF93DF93EC017B018A0165
:101ED000BA010E94370F28813981811114C0211560
:101EE000310519F0C9010E94AF2C198218821D8298
:101EF0001C821B821A82CE01DF91CF911F910F911C
:101F0000FF90EF9008951D830C83B701C9010E94D3
:101F1000072EF1CFEF92FF920F931F93CF93DF9392
:101F200000D000D000D0CDB7DEB78C011A82198264
:101F30001C821B821E821D8242E050E061E871E03B
:101F4000CE0101960E945F0FC8010E942F017C0103
:101F50004D815E8169817A8184E894E00E94AF04BA
:101F600085E791E00E94B30E04E313E0C8018453B7
:101F700093408E159F0574F4F80161918F0170E014
:101F800090E080E04AE00E94C00E85E791E00E9468
:101F9000B30EECCF85E791E00E94040F0E9424016C
:101FA00089819A81009711F00E94AF2C26960FB676
:101FB000F894DEBF0FBECDBFDF91CF911F910F917F
:101FC000FF90EF900895EF92FF920F931F93CF939E
:101FD000DF93EC017B01FB0101900020E9F73197D1
:101FE0008F01061B170BB8010E94370F288139811A
:101FF000811113C02115310519F0C9010E94AF2CC0
:10200000198218821D821C821B821A82DF91CF9155
:102010001F910F91FF90EF9008951D830C83B701DE
:10202000C901DF91CF911F910F91FF90EF900C9418
:10203000072E85ED8093BC0080915C0490915D0437
:10204000A0915E04B0915F040796A11DB11D23E02D
:10205000B695A795979587952A95D1F72091BC00BD
:1020600024FD03C010925A04089540915C045091DD
:102070005D0460915E0470915F04452B462B472BF5
:1020800069F30097A105B10541F025E12A95F1F723
:1020900000000197A109B109E1CF80915B040C9484
:1020A0006B062F923F924F925F926F927F928F9228
:1020B0009F92AF92BF92CF92DF92EF92FF920F93D7
:1020C0001F93CF93DF9300D000D000D0CDB7DEB701
:1020D000FC012181263309F0BFC16C011A821982EB
:1020E0001C821B821E821D8250E040E061E771E08D
:1020F000CE0101960E945F0FF601E280F380860117
:102100000C5F1F4FA701B80180E190E20E94AC056F
:10211000009759F5A701B80180E390E20E94AC0551
:10212000009709F061C0A701B80180E590E20E9424
:10213000AC05009709F467C0BC018DE192E00E94F4
:10214000EA05F60142815381B80180E490E20E94E1
:10215000AC05009709F070C06AE871E0CE01019605
:102160000E94E30F02E010E00EC044E0BC018DE1EC
:1021700092E00E94080664E871E0CE0101960E9498
:10218000E30F04E010E04D815E8169817A8184E88B
:1021900094E00E94AF0485E791E00E94B30E89EDC0
:1021A000A82E81E0B82E9DE1292E92E0392E912CA7
:1021B000812C0815190509F443C18D819E81892B55
:1021C00009F490C065E971E089819A810E94FE2D31
:1021D000892B09F087C0F50160817181828193812B
:1021E0004AE00E94C00E8FC043E0BC018DE192E046
:1021F0000E94080667E871E0CE0101960E94E30F95
:1022000003E010E0C0CFA701B80180E690E20E9491
:10221000AC050097B9F4A701B80180E790E20E94ED
:10222000AC050097C1F042E0BC018DE192E00E9454
:10223000080661E971E092CFBC0181E292E00E9460
:10224000EA058ACF43E0BC018DE192E00E940806D6
:102250006DE871E0D1CFA701B80180E190E10E9463
:10226000AC05FC0110E000E0892B09F48CCF8381E0
:102270008093B40282818093B50281818093B602FB
:1022800080818093B7028091B4029091B502A091B1
:10229000B602B091B7028093D9019093DA01A0936E
:1022A000DB01B093DC0187818093B4028681809347
:1022B000B50285818093B60284818093B7028091B4
:1022C000B4029091B502A091B602B091B70280938A
:1022D000DD019093DE01A093DF01B093E00165E999
:1022E00071E03CCFF101C080D180E280F380A70192
:1022F0009601C701B6010E94DF2A882391F089E97F
:1023000091E00E94B30E85E791E00E94B30EFFEFCB
:102310008F1A9F0A84E0A80EB11CE4E02E0E311C37
:1023200048CF26013701E89477F82FEF3FEF4FE7CA
:102330005FE7C301B2010E94DF2A81110DC02FEFB8
:102340003FEF4FE75FE7C301B2010E941328181661
:102350001CF48DE991E0D5CF2FEF3FEF4FE75FE41D
:10236000C701B6010E94DA2A18161CF481EA91E02E
:10237000C8CF2FEF3FEF4FE75FECC701B6010E94D8
:10238000132887FDF3CF20E030E0A901C701B60193
:102390000E94132887FF09C06DE284E894E00E9440
:1023A0003405F7FAF094F7F8F0942AE037ED43EAB1
:1023B0005BE3C701B6010E94CD292B013C010E94BD
:1023C000AB2A6B017C010E9418289B01AC01C30160
:1023D000B2010E94CC292B013C014AE0C701B601A1
:1023E0000E94C00E6EE284E894E00E94340520E072
:1023F00030E040E251E4C301B2010E9479282B0190
:102400003C010E94AB2A6B01F12CE12C4AE0C70190
:10241000B6010E94C00EC701B6010E9418289B0198
:10242000AC01C301B2010E94CC2920E030E040E2BF
:1024300051E40E9479280E94AB2A90E080E0D0CE3F
:1024400085E791E00E94040F0E94240189819A810E
:10245000009711F00E94AF2C26960FB6F894DEBFBD
:102460000FBECDBFDF91CF911F910F91FF90EF90E5
:10247000DF90CF90BF90AF909F908F907F906F90A4
:102480005F904F903F902F9008958F929F92AF92C0
:10249000BF92EF92FF920F931F93CF93DF93CDB72D
:1024A000DEB7C450D1400FB6F894DEBF0FBECDBF2B
:1024B0008C01E62EF42EAC0160E170E2CE010596AF
:1024C0000E94C505882309F459C08FEF898386E3EC
:1024D0008A8383E190E09C838B83F801428153815E
:1024E000B8016C5F7F4F80E190E20E94AC050097DD
:1024F00031F044E0BC018DE192E00E9408060DE15C
:1025000012E0F80181909190A190B1908F0120E0AC
:1025100030E040E85FEBC501B4010E94132887FD5D
:102520001AC020E030E040E85FE3C501B4010E943A
:10253000DA2A181684F0F2E00D321F0711F7FF2097
:1025400021F0CE0101960E94F90AEE2021F0CE0181
:1025500001960E94511081E0CC5FDE4F0FB6F894D7
:10256000DEBF0FBECDBFDF91CF911F910F91FF90C6
:10257000EF90BF90AF909F908F900895A80160E377
:1025800070E2CE0105960E94C505882321F38FEFE6
:10259000898386E38A838FE090E09C838B83CFCF0F
:1025A0008F929F92AF92BF92CF92DF92EF92FF9263
:1025B0000F931F93CF93DF93CDB7DEB769970FB615
:1025C000F894DEBF0FBECDBF8C01DC0111968C915B
:1025D0008E3309F4A6C0A0F5803109F4B2C0D8F456
:1025E000813009F477C008F4A3C0843009F4A6C090
:1025F000853009F469C0662319F0C8010E948A0F6A
:10260000C8010E942F01AC0164E373E085E295E00C
:102610000E9482043CC0803309F48DC040F48131B3
:1026200009F44CC0823239F762E270E07CC0813339
:1026300009F44AC08633F9F6C8010E94451227C042
:10264000853609F441C078F48134F1F128F48034FE
:1026500091F660E470E067C08234C9F0843659F6C0
:1026600064E670E060C08A3639F060F4863609F4BA
:1026700075C0873609F0BFCF662349F0C8010E94B4
:10268000160F05C08C36C1F3843D09F0B4CFD801D4
:1026900011968C9190E069960FB6F894DEBF0FBE4C
:1026A000CDBFDF91CF911F910F91FF90EF90DF9001
:1026B000CF90BF90AF909F908F90089582E090E070
:1026C00090931C0280931B02662309F3C8010E94A9
:1026D0008A0FDDCF6623D9F2F80187818093B40297
:1026E00086818093B50285818093B6028481809330
:1026F000B702C090B402D090B502E090B602F0905C
:10270000B70283E791E00E94B30E4AE0C701B60129
:102710000E94C00E8FE691E00E94B30E0E94240139
:10272000D5CF6EE370E085E295E00E94F209AFCF6D
:1027300070E060E0F8CF60E370E0F5CF64E070E057
:10274000F2CF60E170E085E295E00E94F20982E05C
:1027500090E090931C0280931B0299CF6801F4E0F3
:10276000CF0ED11CC6010E94040FCE010B969F9381
:102770008F9302969F938F9302969F938F930296C7
:102780009F938F9306969F938F9302979F938F9318
:1027900002979F938F9385EA91E09F938F93DF92A7
:1027A000CF920E940E2E0FB6F894DEBF0FBECDBFA3
:1027B000019609F46CCFC6010E94040F2F89388D51
:1027C000CB88DC88AD85FF85E989BC2CED88203D70
:1027D00087E0380710F0205D3740422F1A821982B7
:1027E0005AE08A2F652F0E94F42A982F880F890FAC
:1027F000880F8A0F8A838F2F0E94F42A982F880FC0
:10280000890F880F8F0F8B838E2F0E94F42A982FA9
:10281000880F890F880F8E0F8C83D901BB27B601D3
:102820007727E2EBF1E081E08E1530F49491690FA7
:10283000711D8F5F3196F8CFE2E0EE1528F4842FFA
:10284000837011F46F5F7F4FCD0103969695879546
:1028500096958795EDE6F1E0AE9F9001AF9F300D24
:10286000BE9F300D11242B5F3F4F820F931F860FA9
:10287000971F67E070E00E94002B811101C087E084
:102880008D832AE08B2D622F0E94F42A982F880FC7
:10289000890F880F8C0D8E838E2D0E94F42A982F1D
:1028A000880F890F880F8E0D8F83842F0E94F42A42
:1028B000982F880F890F880F840F8887C09019027E
:1028C000D0901A02D60114968D919C911597089775
:1028D00058F08C910E941A0148E050E0BE016F5FF1
:1028E0007F4FC6010E947C078FE0898FC09019023C
:1028F000D0901A02F60184819581892B59F080814C
:102900000E941A0141E050E0BE01675E7F4FC601A0
:102910000E947C07C0901902D0901A02D60114962A
:10292000AD90BC9041E0A114B10409F440E0842EC4
:10293000912C242FF6016081818192810E94F70CF5
:1029400088151904B1F430E020E02815390578F431
:10295000D60111968D919C91DC01ED91FC91028440
:10296000F385E02D099521E030E0F82EEECFAB287D
:10297000A9F28FE089878F2D8F778A87E0901902DF
:10298000F0901A02F70184819581029708F47FCEB6
:1029900080810E941A0142E050E0BE01675F7F4FD4
:1029A000C7010E947C0773CECF93DF93CDB7DEB70C
:1029B000C450D1400FB6F894DEBF0FBECDBF20E0AB
:1029C00030E0A901BE016F5F7F4F85E295E00E9474
:1029D0009B0A882389F040E060E0CE0101960E94C6
:1029E000D012C69749F480910C0390910D03019683
:1029F00090930D0380930C03CC5FDE4F0FB6F894D9
:102A0000DEBF0FBECDBFDF91CF9108951F93CF934F
:102A1000DF93CDB7DEB7C450D1400FB6F894DEBF18
:102A20000FBECDBF61E085E00E94780265ED70E0E9
:102A300086E095E00E94F20960E085E00E9478025D
:102A400068EC70E080E090E00E946C0328EE33E0D8
:102A500040E050E0BE016F5F7F4F86E095E00E944E
:102A60009B0A182F882331F041E060E0CE010196E7
:102A70000E94D012812FCC5FDE4F0FB6F894DEBFDC
:102A80000FBECDBFDF91CF911F910895CF92DF92FE
:102A9000EF92FF920F931F93CF93DF93CDB7DEB7E3
:102AA000C450D1400FB6F894DEBF0FBECDBF182F73
:102AB000062F86E38A830E942F0EF62EE72ED82E4D
:102AC000C92E0E94F80D20E22D8320E72E8328E0F6
:102AD0002F83C886D986EA86FB869C878D877E876A
:102AE0006F878BE090E09C838B83002321F0CE01E5
:102AF00001960E94F90A112321F0CE0101960E944D
:102B00005110CC5FDE4F0FB6F894DEBF0FBECDBFC5
:102B1000DF91CF911F910F91FF90EF90DF90CF90B9
:102B20000895AF92BF92CF92DF92EF92FF920F93F0
:102B30001F93CF93DF93CDB7DEB7C450D1400FB60C
:102B4000F894DEBF0FBECDBFD82EC62E86E38A8393
:102B50008BE00E94660E5C0189E00E94660E7C019B
:102B60008DE00E94660E8C0180E28D8380E68E836C
:102B70008CE08F83B50190E080E00E94182820E06F
:102B800030E048EC52E40E94392A988789877A8796
:102B90006B87B70190E080E00E94182820E030E0C9
:102BA00048EC52E40E94392A609315027093160291
:102BB0008093170290931802809118028C8780915D
:102BC00017028D87809116028E87809115028F875C
:102BD000B80190E080E00E94182820E030E048EC46
:102BE00052E40E94392A6093150270931602809372
:102BF00017029093180280911802888B8091170217
:102C0000898B809116028A8B809115028B8B8FE0C5
:102C100090E09C838B83CC2021F0CE0101960E9412
:102C2000F90ADD2021F0CE0101960E945110CC5FFF
:102C3000DE4F0FB6F894DEBF0FBECDBFDF91CF9150
:102C40001F910F91FF90EF90DF90CF90BF90AF90CA
:102C500008952F923F924F925F926F927F928F9240
:102C60009F92AF92BF92CF92DF92EF92FF920F931B
:102C70001F93CF93DF93CDB7DEB7CB52D1400FB6C2
:102C8000F894DEBF0FBECDBFC65DDE4F8883CA524B
:102C9000D140C55DDE4F6883CB52D14086E38A8345
:102CA00086E70E941A018AE490E00E942A080E94A6
:102CB000970764E170E080E090E00E946C0386E793
:102CC0000E941A0190E080E00E942A080E94970763
:102CD00021E043E066E784ED94E00E94F70C109257
:102CE000F1041092F2041092F3041092F4040E9482
:102CF000A6016C01990FEE08FF08C092F104D09272
:102D0000F204E092F304F092F4040E94A601FE2C77
:102D1000ED2CDC2CCC24092E000CAA0BBB0BC82AF2
:102D2000D92AEA2AFB2AC092F104D092F204E09256
:102D3000F304F092F4040E94A601FE2CED2CDC2C8E
:102D4000CC24092E000CAA0BBB0B8C299D29AE2983
:102D5000BF298093F1049093F204A093F304B093FD
:102D6000F40486E70E941A018AE590E00E942A088E
:102D70000E94970764E170E080E090E00E946C039D
:102D800086E70E941A0190E080E00E942A080E94D3
:102D9000970721E043E066E784ED94E00E94F70C9A
:102DA0001092F5041092F6041092F7041092F804B1
:102DB0000E94A6016C01990FEE08FF08C092F5046D
:102DC000D092F604E092F704F092F8040E94A60173
:102DD000FE2CED2CDC2CCC24092E000CAA0BBB0BFA
:102DE000C82AD92AEA2AFB2AC092F504D092F6040E
:102DF000E092F704F092F8040E94A601FE2CED2C5C
:102E0000DC2CCC24092E000CAA0BBB0BC82AD92A17
:102E1000EA2AFB2AC092F504D092F604E092F70465
:102E2000F092F8048091EB049091EC04B0E0A0E003
:102E3000BA2FA92F982F882716012701281A390A97
:102E40004A0A5B0AE0900105CB5EDE4FE882C5517D
:102E5000D1406091E7047091E8040091F104109171
:102E6000F2042091F3043091F404CA5DDE4F08832C
:102E700019832A833B83C652D1401E2D90E080E007
:102E8000A20191010E94792BF22E032F113009F03B
:102E9000BEC3142FB52FF62FE72FD82EE92EA0E0B2
:102EA0000E94072C5CF4AFE70E94F22BF22E032F56
:102EB000142FB52FF62FE72FD82EE92E2F2D302FD8
:102EC000412F5B2F6F2F7E2F8D2D9E2D07E00E94AF
:102ED000CC2B39014A01B62FA72FF82FE92FA0904C
:102EE000E304B090E404950140E050E060E070E05D
:102EF00080E090E000E10E94B32B59016A017B0160
:102F00008C019301A4016B2F7A2F8F2F9E2F0E948B
:102F1000E92BCA5EDE4F2883C651D140C95EDE4F21
:102F20003883C751D140C85EDE4F4883C851D14075
:102F3000C75EDE4F5883C951D140C65EDE4F6883FD
:102F4000CA51D140C55EDE4F7883CB51D140C45EBB
:102F5000DE4F8883CC51D140C35EDE4F9883CD5184
:102F6000D1406091E9047091EA0490E080E0A20110
:102F700091010E94792BF22E032F142FB52FF62FDB
:102F8000E72FD82EE92EA0E00E94072C5CF4AFE3D7
:102F90000E94F22BF22E032F142FB52FF62FE72FBE
:102FA000D82EE92E2F2D302F412F5B2F6F2F7E2F04
:102FB0008D2D9E2D06E00E94CC2B39014A01B62FA3
:102FC000A72FF82FE92FA090E504B090E604950113
:102FD00040E050E060E070E080E090E001E10E94BD
:102FE000B32B59016A017B018C019301A4016B2F62
:102FF0007A2F8F2F9E2F0E94E92BC25EDE4F2883EF
:10300000CE51D140C15EDE4F3883CF51D140C05E3A
:10301000DE4F4883C052D140CF5DDE4F5883C1524E
:10302000D140CE5DDE4F6883C252D140CD5DDE4FD0
:103030007883C352D140CC5DDE4F8883C452D140E7
:10304000CB5DDE4F9883C552D140CA5DDE4FE8802C
:10305000F9800A811B81C652D140A801970160E026
:1030600070E0CB01CB5FDE4F2883C550D140CA5FF3
:10307000DE4F3883C650D140C95FDE4F4883C7500A
:10308000D140C85FDE4F5883C850D140C75FDE4F84
:103090006883C950D140C65FDE4F7883CA50D140A3
:1030A000C55FDE4F8883CB50D140C45FDE4F98832D
:1030B000CC50D14092018101330F000B102F9801A9
:1030C000CB5FDE4F088319832A833B83C550D140F1
:1030D0006091ED047091EE0490E080E0A201910116
:1030E0000E94792BF22E032F142FB52FF62FE72FE6
:1030F000D82EE92EA0E00E94072C84F4215031093B
:1031000040485F4F6F4F7F4F8F4F9F4FF22E032FDF
:10311000142FB52FF62FE72FD82EE92E2F2D302F75
:10312000412F5B2F6F2F7E2F8D2D9E2D07E10E944B
:10313000CC2B49015A012053384F4F4F5F4FCF5E80
:10314000DE4F288339834A835B83C151D140CB5EF4
:10315000DE4F3881C551D140313009F005C3CF5E13
:10316000DE4F88819981AA81BB81C151D140803DC8
:103170009740A105B1050CF0FBC3C201B1012BE0E2
:1031800030E040E050E00E94792B51016201CB5FBA
:10319000DE4FE880C550D140FE2C0E2D1E2D0E9422
:1031A000212BF22E032F142FB52FF62FE72FD82E19
:1031B000E92EA0E00E94072C84F421503109410936
:1031C0005109684F7F4F8F4F9F4FF22E032F142FBF
:1031D000B52FF62FE72FD82EE92E2F2D302F412F88
:1031E0005B2F6F2F7E2F8D2D9E2D03E20E94CC2B07
:1031F000822E932EA42EB52EAFE1B0E0CF5EDE4F2F
:10320000C880D980EA80FB80C151D14000EDC01A4E
:1032100007E0D00AE108F108A70196010E945929A8
:103220009B01AC01C701B6010E94E42A9B01AC01DD
:10323000F3E05595479537952795FA95D1F7CB5FEC
:10324000DE4F288339834A835B83C550D140AFE387
:10325000B0E0A70196010E9459299B01AC01C7016A
:10326000B6010E94E42A7B018C01A5E01595079523
:10327000F794E794AA95D1F7CF5EDE4F2881398184
:103280004A815B81C151D140281939094A095B093A
:10329000CF5EDE4F288339834A835B83C151D1409F
:1032A0002093F9043093FA044093FB045093FC04F8
:1032B000CA5DDE4F88819981AA81BB81C652D14007
:1032C0001C012D01A8019701550F220B322FA901D6
:1032D000C35FDE4F288339834A835B83CD50D1405F
:1032E000CA5EDE4F2881C651D140C95EDE4F3881AB
:1032F000C751D140C85EDE4F4881C851D140C75E3A
:10330000DE4F5881C951D140C65EDE4F6881CA5137
:10331000D140C55EDE4F7881CB51D140C45EDE4FD7
:103320008881CC51D140C35EDE4F9881CD51D140D0
:1033300057016801C35FDE4FE880CD50D140FE2CBD
:103340000E2D1E2D0E94FE2B59016A017B018C015E
:103350009101A20160E070E080E090E00E94212BEA
:10336000F22E032F142FB52FF62FE72FD82EE92E8C
:10337000A0E00E94072C84F421503109404E5F4F99
:103380006F4F7F4F8F4F9F4FF22E032F142FB52F6C
:10339000F62FE72FD82EE92E2F2D302F412F5B2F20
:1033A0006F2F7E2F8D2D9E2D05E10E94CC2B1901B4
:1033B0004A01B62FA72FF82FE92FCB5FDE4F4880A9
:1033C00059806A807B80C550D140770C4408542CCA
:1033D0003201C25EDE4F2881CE51D140C15EDE4F48
:1033E0003881CF51D140C05EDE4F4881C052D140BC
:1033F000CF5DDE4F5881C152D140CE5DDE4F688136
:10340000C252D140CD5DDE4F7881C352D140CC5DF8
:10341000DE4F8881C452D140CB5DDE4F9881C552CA
:10342000D140CB5FDE4FA880C550D140CA5FDE4F90
:10343000B880C650D140C95FDE4FC880C750D14068
:10344000C85FDE4FD880C850D140E42CF42C042D46
:10345000142D0E94FE2B59016A017B018C01910100
:10346000A4016B2F7A2F8F2F9E2F0E94FE2BCB5EF5
:10347000DE4FA881C551D140F22E032F142FB52F56
:10348000F62FE72FD82EE92EA13009F07DC2A0E05B
:103490000E94072C84F4215030484F4F5F4F6F4FEC
:1034A0007F4F8F4F9F4FF22E032F142FB52FF62FE4
:1034B000E72FD82EE92E2F2D302F412F5B2F6F2F86
:1034C0007E2F8D2D9E2D0FE00E94CC2B2093FD048E
:1034D0003093FE044093FF0450930005CF5EDE4F0F
:1034E000688179818A819B81C151D1400E941A28CB
:1034F00020E030E048EC52E40E94392A162F072FD2
:10350000F82EE92E862F902FAF2DBE2D809310011F
:1035100090931101A0931201B09313016091FD04E7
:103520007091FE048091FF04909100050E941A287A
:10353000CB5EDE4FB881C551D14020E030E048EC91
:1035400052E4B13021F020E030E040E251E40E944A
:10355000392A60930C0170930D0180930E019093B2
:103560000F0130E23D8320E42E8324E02F83E886A0
:10357000F9860A871B876093150270931602809361
:103580001702909318023C8780E58D872E878091E3
:1035900018028F8780911702888B80911602898B81
:1035A000809115028A8B8EE090E09C838B83C55DB1
:1035B000DE4FE881CB52D140EE2321F0CE010196BF
:1035C0000E94F90AC65DDE4FE880CA52D140EE2063
:1035D00021F0CE0101960E945110C55DDE4F0FB65D
:1035E000F894DEBF0FBECDBFDF91CF911F910F9139
:1035F000FF90EF90DF90CF90BF90AF909F908F9013
:103600007F906F905F904F903F902F900895142F70
:10361000B52FF62FE72FD82EE92EA0E00E94072C19
:1036200084F421503F4F4F4F5F4F6F4F7F4F8F4F6D
:103630009F4FF22E032F142FB52FF62FE72FD82EE2
:10364000E92E2F2D302F412F5B2F6F2F7E2F8D2DA9
:103650009E2D08E00E94CC2B39014A01B62FA72FDE
:10366000F82FE92FA090E304B090E404D12CC12CF2
:103670009501A60160E070E080E090E00FE00E941C
:10368000B32B59016A017B018C019301A4016B2FBB
:103690007A2F8F2F9E2F0E94E92BCA5EDE4F288340
:1036A000C651D140C95EDE4F3883C751D140C85E94
:1036B000DE4F4883C851D140C75EDE4F5883C951A1
:1036C000D140C65EDE4F6883CA51D140C55EDE4F31
:1036D0007883CB51D140C45EDE4F8883CC51D1403A
:1036E000C35EDE4F9883CD51D1406091E904709163
:1036F000EA0490E080E0A20191010E94792BF22E71
:10370000032F142FB52FF62FE72FD82EE92EA0E088
:103710000E94072C5CF4AFE70E94F22BF22E032FDD
:10372000142FB52FF62FE72FD82EE92E2F2D302F5F
:10373000412F5B2F6F2F7E2F8D2D9E2D07E00E9436
:10374000CC2B39014A01B62FA72FF82FE92FA090D3
:10375000E504B090E604950140E050E060E070E0E0
:1037600080E090E000E13BCCC35FDE4F888299822D
:10377000AA82BB82CD50D140CF5EDE4F8881998135
:10378000AA81BB81C151D140803D9740A105B105BF
:103790000CF0D0C0C201B10123E030E040E050E0C5
:1037A0000E94792B51016201CB5FDE4FE880C5504A
:1037B000D140FE2C0E2D1E2D0E94212BF22E032F08
:1037C000142FB52FF62FE72FD82EE92EA0E00E9458
:1037D000072C84F421503109410951096E4F7F4F64
:1037E0008F4F9F4FF22E032F142FB52FF62FE72F59
:1037F000D82EE92E2F2D302F412F5B2F6F2F7E2FAC
:103800008D2D9E2D01E20E94CC2B822E932EA42E74
:10381000B52EA3E0B0E0C35FDE4F288139814A8135
:103820005B81CD50D1400E9459299B01AC01C35FFF
:10383000DE4F688179818A819B81CD50D1400E9481
:10384000E42A7B018C0115950795F794E794CB5FEB
:10385000DE4FE882F9820A831B83C550D140A5E080
:10386000B0E0C35FDE4F288139814A815B81CD5052
:10387000D1400E9459299B01AC01C35FDE4F688192
:1038800079818A819B81CD50D1400E94E42A7B01BD
:103890008C01E3E015950795F794E794EA95D1F745
:1038A000CF5EDE4F288139814A815B81C151D14091
:1038B000213C89EF38078FEF480758070CF0DCCC24
:1038C000A7E0B0E029013A019CED490E95E0591EB0
:1038D000611C711CA30192010E9459299B01AC013A
:1038E000C301B2010E94E42ACB5FDE4F28813981F7
:1038F0004A815B81C550D140260F371F481F591F91
:10390000CB5FDE4F288339834A835B83C550D14028
:10391000A301920162E0220F331F441F551F6A95D5
:10392000D1F7C301B2010E94E42AE60EF71E081F78
:10393000191FA2CCA5019401C501B4010E94E42A7B
:103940007B018C0124E015950795F794E7942A955F
:10395000D1F7CB5FDE4FE882F9820A831B83C55023
:10396000D140812C912C5401E12CF12C870184CC85
:10397000812C912C5401CB5FDE4F188219821A8260
:103980001B82C550D140F0CFA0E00E94072C84F4E8
:103990002150304E4F4F5F4F6F4F7F4F8F4F9F4F94
:1039A000F22E032F142FB52FF62FE72FD82EE92E46
:1039B0002F2D302F412F5B2F6F2F7E2F8D2D9E2D82
:1039C0000DE082CD0F931F93CF93DF93C82FD62F97
:1039D00080910D0281110DC00E94AE036093090217
:1039E00070930A0280930B0290930C0281E0809303
:1039F0000D028091010281110DC00E94AE036093FF
:103A0000FD017093FE018093FF019093000281E01D
:103A1000809301028091F50181110DC00E94AE03D7
:103A20006093F1017093F2018093F3019093F4019C
:103A300081E08093F5018091E901811105C00E9428
:103A4000AE0381E08093E9010E94AE030091F10191
:103A50001091F2012091F3013091F401601B710B80
:103A6000820B930B683E73408105910570F00E94B4
:103A7000AE036093F1017093F2018093F301909390
:103A8000F4016D2F8C2F0E9429160E94AE03009125
:103A9000FD011091FE012091FF0130910002601B99
:103AA000710B820B930B603A7F408105910570F09A
:103AB0000E94AE036093FD017093FE018093FF01AD
:103AC000909300026D2F8C2F0E9491150E94AE03DF
:103AD0000091090210910A0220910B0230910C0210
:103AE000601B710B820B930B603A7F40810591053F
:103AF00090F00E94AE036093090270930A028093D3
:103B00000B0290930C026D2F8C2FDF91CF911F91A0
:103B10000F910C944615DF91CF911F910F9108954D
:103B2000CF93DF93CDB7DEB7C450D1400FB6F89432
:103B3000DEBF0FBECDBF80910003811105C00E9482
:103B4000AE0381E08093000381E00E94380B61E0C6
:103B500085E00E94780261E080E00E94E21C20E0A3
:103B600030E0A901BE016F5F7F4F85E295E00E94C2
:103B70009B0A882389F041E060E0CE0101960E9413
:103B8000D012C69749F480910C0390910D030196D1
:103B900090930D0380930C0380E00E94380B84EE19
:103BA00093E00197F1F781E0CC5FDE4F0FB6F89418
:103BB000DEBF0FBECDBFDF91CF9108950F931F934E
:103BC000CF93DF93CDB7DEB7C850D2400FB6F8948D
:103BD000DEBF0FBECDBF84E894E00E9492051816A8
:103BE0001906A4F581E00E94380B0E94AE0301E0A3
:103BF00011E084E894E00E94920518161906DCF49E
:103C000001501109C1F084E894E00E9450058A3FF8
:103C100081F7BE016F5F7F4F84E894E00E941E0A27
:103C2000882339F389818F3F21F740E061E0CE019D
:103C300001960E94D0120E94AE036093FC02709322
:103C4000FD028093FE029093FF02C5CF80E00E94A8
:103C5000380B20E030E0A901BE016B5F7E4F85E2AA
:103C600095E00E949B0A882391F040E061E0CE013C
:103C70008B5F9E4F0E94D012C69749F480910C032F
:103C800090910D03019690930D0380930C0360E0D7
:103C900081E00E94E21C65E070E080E090E00E941C
:103CA0006C03C85FDD4F0FB6F894DEBF0FBECDBF0B
:103CB000DF91CF911F910F9108951F920F920FB630
:103CC0000F9211242F933F938F939F93AF93BF93A2
:103CD0008091E8029091E902A091EA02B091EB0292
:103CE0003091E70226E0230F2D3758F50296A11DEB
:103CF000B11D2093E7028093E8029093E902A0931C
:103D0000EA02B093EB028091EC029091ED02A09157
:103D1000EE02B091EF020196A11DB11D8093EC025D
:103D20009093ED02A093EE02B093EF02BF91AF919A
:103D30009F918F913F912F910F900FBE0F901F90E9
:103D4000189529E8230F0396A11DB11DD2CF1F920C
:103D50000F920FB60F9211242F933F934F935F93BF
:103D60006F937F938F939F93AF93BF93EF93FF9343
:103D7000E0912001F09121010995FF91EF91BF9110
:103D8000AF919F918F917F916F915F914F913F91F3
:103D90002F910F900FBE0F901F9018951F920F92AA
:103DA0000FB60F9211242F933F934F935F936F930E
:103DB0007F938F939F93AF93BF93EF93FF93E09184
:103DC0001E01F0911F010995FF91EF91BF91AF91F5
:103DD0009F918F917F916F915F914F913F912F9123
:103DE0000F900FBE0F901F9018951F920F920FB655
:103DF0000F9211242F933F934F935F936F937F9371
:103E00008F939F93AF93BF93EF93FF93E0911C0128
:103E1000F0911D010995FF91EF91BF91AF919F9195
:103E20008F917F916F915F914F913F912F910F9063
:103E30000FBE0F901F9018951F920F920FB60F9202
:103E400011242F933F934F935F936F937F938F939F
:103E50009F93AF93BF93EF93FF93E0911A01F0917B
:103E60001B010995FF91EF91BF91AF919F918F91A8
:103E70007F916F915F914F913F912F910F900FBE66
:103E80000F901F9018951F920F920FB60F9211244A
:103E90002F933F934F935F936F937F938F939F9352
:103EA000AF93BF93EF93FF93E0911801F091190145
:103EB0000995FF91EF91BF91AF919F918F917F9164
:103EC0006F915F914F913F912F910F900FBE0F9087
:103ED0001F9018951F920F920FB60F9211242F93D7
:103EE0003F934F935F936F937F938F939F93AF9382
:103EF000BF93CF93EF93FF93C091E1008091E100D6
:103F0000837F8093E100C3FF0FC01092E90081E03E
:103F10008093EB001092EC0082E38093ED0010920E
:103F2000090388E08093F000C2FF1AC00E942401B8
:103F30008091BD02882341F08091BD028150809321
:103F4000BD02811101C05D9A80910803882341F070
:103F500080910803815080930803811101C0289A41
:103F6000C4FF23C08091E2008E7E81608093E200D6
:103F70008091E1008F7E8093E1008091BE028E7E71
:103F800080618093BE02FF91EF91CF91BF91AF917D
:103F90009F918F917F916F915F914F913F912F9161
:103FA0000F900FBE0F901F901895C0FFECCF80911F
:103FB000E2008E7E80618093E2008091E1008E7E3F
:103FC0008093E1008091BE028E7E8160DACF1F92E5
:103FD0000F920FB60F921124CF92DF92EF92FF92C1
:103FE0000F931F932F933F934F935F936F937F9301
:103FF0008F939F93AF93BF93EF93FF93CF93DF93F1
:10400000CDB7DEB76C97DEBFCDBF1092E9008091CF
:10401000E80083FF25C068E0CE0145960E94750444
:1040200082EF8093E8008D8987FF39C09091E80086
:1040300090FFFCCF982F907609F034C19E894F896C
:10404000588D2F89F88C911131C0803861F580919D
:10405000BF028093F1001092F1008EEF8093E80090
:104060006C960FB6F894DEBF0FBECDBFDF91CF9137
:10407000FF91EF91BF91AF919F918F917F916F9140
:104080005F914F913F912F911F910F91FF90EF9072
:10409000DF90CF900F900FBE0F901F9018959EEF5E
:1040A0009093E800C7CF1092F100D5CF913059F42A
:1040B0008111D3CF4130510581F68091BF028D7FB0
:1040C0008093BF02CACF933049F48111C6CF4130EB
:1040D000510519F68091BF028260F2CF953041F40C
:1040E0008091E80080FFFCCF20682093E300B5CFEB
:1040F000963009F0A9C00B8D1C8D22E01092E900CA
:104100001092BB021092BA02F2122EC01092B902A3
:104110001092B8020E9444041F8299E09983FA82A7
:1041200091E09E8390EA98879AEF99872091BA024E
:104130003091BB02275F3F4F3C832B838D831092CE
:10414000E9001092BB021092BA021093B9020093D8
:10415000B80249E050E0BE016F5F7F4F80E00E94EF
:104160001E040E94440479CF1093B9020093B80250
:104170000E94F401DC0112960D911C9101151105AC
:1041800009F451C1D801ED91FC910480F581E02D35
:10419000BE016B5E7F4FC8010995009709F03EC1D3
:1041A000F80100851185EACFF3E0FF120EC08F8978
:1041B000882309F440C0823061F440E862E189E17B
:1041C00091E00E94EB03811148CF81E28093EB00E4
:1041D00047CF813029F440E868E080E191E0F1CFF9
:1041E000833099F70E94F401DC011296ED90FC9067
:1041F0008E010F5F1F4F6801E114F10479F0D701C0
:10420000ED91FC910680F781E02DB801C701099579
:10421000080F111DF701E084F184EECFD8011C9244
:10422000F60101900020E9F73197BF016C197D0973
:1042300040E0C601C6CF6AEF70E0FB01449150E058
:1042400080E80E941E0409CF973009F4BECF983051
:1042500021F481E08093F10000CF993009F0FDCE88
:10426000837009F0B2CFE3E3F1E081E031E096E35F
:104270002191222371F08093E9003093EB00DF015C
:1042800011972C912093EC009093ED008F5F873075
:1042900079F78EE78093EA001092EA008F89809385
:1042A0000903DBCE8B8D9C8D1092E9001092BB022E
:1042B0001092BA029093B9028093B802898D81114D
:1042C00092C08E899D89913A49F4813209F07DCF5F
:1042D00047E050E064E271E080E0B3CF913209F052
:1042E00074CF833269F48F89988DB0E0A0E0809319
:1042F000140190931501A0931601B0931701ADCE50
:10430000803269F48091E80082FFFCCF67E084E2AC
:1043100091E00E9475048BEF8093E8009ECE82327C
:1043200009F09BCE8F8980932B01EEEFFFE78591FB
:1043300094918B3F9C4D51F1E0E0F8E08091240195
:1043400090912501A0912601B0912701803B9440D6
:10435000A105B105F1F480912B0180FD1AC0EE3F5B
:104360008AE0F80789F587E797E791838083809152
:1043700060008093BC0288E19BE00FB6F894A8959A
:10438000809360000FBE9093600067CEEEEFFAE07E
:10439000D5CF808191818737974709F05ECEA89568
:1043A000809160008861809360008091BC0280935E
:1043B0006000EE3F2AE0F20789F08091FE0A9091BA
:1043C000FF0A9183808349CE808191818737980746
:1043D00051F29093FF0A8093FE0AC5CF1092FF0A14
:1043E0001092FE0A3ACE0E94F401DC0112960D9161
:1043F0001C910115110509F4E8CED801ED91FC914D
:104400000190F081E02DBE016B5E7F4FC8010995E0
:10441000811123CEF80100851185EBCF18161906FE
:104420000CF41BCED2CEF1E0FF12BECE6EEF70E0E8
:1044300004CF1F920F920FB60F9211242F933F9328
:104440004F935F936F937F938F939F93AF93BF939C
:10445000EF93FF938091B900887F803609F44AC0BA
:10446000F0F5883209F4A7C018F5803109F49BC033
:10447000B8F4882309F4F9C0883009F494C0FF9196
:10448000EF91BF91AF919F918F917F916F915F91CC
:104490004F913F912F910F900FBE0F901F90189545
:1044A000883109F488C0803251F78093580414C0D1
:1044B000803409F49DC040F48033B9F38833F9F6B1
:1044C0008093580485ECB0C0803509F485C08835E8
:1044D00009F496C0883499F60E941910D0CF883913
:1044E00009F48CC038F5883729F050F4883611F07B
:1044F000803729F683E080935A041092B30257C0A4
:10450000883809F47BC0803919F0803809F0B7CFBA
:104510008091B302803208F071C0E091B30281E073
:104520008E0F8093B3028091BB00F0E0ED56FD4FFB
:1045300080833DC0803B39F0E0F4803A09F479C0D3
:10454000883A09F09CCF84E080935A04109292023A
:1045500010929102E091C302F091C40209958091FA
:10456000910281110FC081E080939102109271023B
:1045700009C0803C09F4A6CF883C09F4A3CF883B4E
:1045800009F07DCFE091920281E08E0F809392023C
:10459000F0E0EF58FD4F80818093BB009091920234
:1045A0008091910229C0809135048093BB0085ECF5
:1045B0008093BC0064CF9091570480915604981763
:1045C00058F5E091570481E08E0F80935704F0E096
:1045D000EA5CFB4F8081E9CFE091570481E08E0FC8
:1045E000809357048091BB00F0E0EA5CFB4F80832E
:1045F00090915704809156049817C8F285E8D8CF57
:10460000E091570481E08E0F809357048091BB00A6
:10461000F0E0EA5CFB4F80838091590481115CCF0C
:1046200081E08093340484EA8093BC0010925A04A1
:1046300026CF85EC8093BC0010925A048091B3027F
:10464000803230F4E091B302F0E0ED56FD4F10827D
:104650006091B30270E0E091C102F091C20283E97F
:1046600092E009951092B3020ACF1092580434CF09
:104670001F920F920FB60F9211242F933F934F93D7
:104680005F936F937F938F939F93AF93BF93EF93BA
:10469000FF93E0916F02F0917002309749F0A68588
:1046A000B7858585968D91FF14C09C918923A1F4CF
:1046B000FF91EF91BF91AF919F918F917F916F91FA
:1046C0005F914F913F912F910F900FBE0F901F90D0
:1046D00018959C91892361F7A389B4899C91858958
:1046E000809589238C93868997890197F1F7608D4E
:1046F000718DA685B785558538E020E0CB010197FF
:10470000F1F7822F90E095958795282F4C914523BE
:1047100009F02068315091F7868D81FD20958091B8
:104720006D0290E001968F73992730916E023817D1
:1047300099F0A0916D02B0E0A35DBD4F2C938093E2
:104740006D02828D938D0197F1F7A389B4898C91C5
:104750009589892B8C93ACCF868D8160868FF1CF24
:104760001F920F920FB60F9211248F930FB6F894E9
:10477000A89580916000886180936000109260002D
:104780000FBE8F910F900FBE0F901F901895109233
:1047900087041092860488EE93E0A0E0B0E0809356
:1047A000880490938904A0938A04B0938B042FE427
:1047B00031E030938504209384042FEF3FEF309352
:1047C0009104209390041092D7041092D604809301
:1047D000D8049093D904A093DA04B093DB0481E663
:1047E00091E09093D5048093D4044FE061E185E299
:1047F00095E00E94E20249E068E086E095E00E94D0
:10480000E20280E090EAA0E8B4E48093020590938D
:104810000305A0930405B093050584E48093E004A8
:1048200010924905109248051092470510924405D0
:10483000E2EBF1E081E08C3049F09491823009F4B0
:104840009F5F21E0280F3196992331F08093450531
:1048500081E0809346050895822FEDCF789484B54A
:10486000826084BD84B5816084BD85B5826085BD6C
:1048700085B5816085BD80916E00816080936E00FA
:1048800010928100809181008260809381008091EC
:10489000810081608093810080918000816080939D
:1048A00080008091910082608093910080919100BE
:1048B000816080939100809190008160809390004E
:1048C0008091C10084608093C1008091C1008260AA
:1048D0008093C1008091C10081608093C10080916C
:1048E000C30081608093C3008091C0008260809388
:1048F000C0008091C20081608093C20080917A00E4
:10490000846080937A0080917A00826080937A003C
:1049100080917A008E7F80937A0080917A008068FF
:1049200080937A00109209031092BF021092BE0287
:104930008091D70081608093D70080EA8093D8006F
:1049400089B58F7E89BD89B5826089BD09B400FEB5
:10495000FDCF61E070E080E090E00E946C03809108
:10496000D8008F7C80618093D8008091E000807FA8
:104970008093E0008091E1008E7E8093E1008DE0E5
:104980008093E200559A209A88E199E20FB6F89454
:10499000A895809360000FBE9093600061E086E070
:1049A0000E94A60281E00E94160B64E670E080E09F
:1049B00090E00E946C0361E085E00E94A60286E020
:1049C00095E00E942F0984E690E0A0E0B0E080939B
:1049D0000A0590930B05A0930C05B0930D0585E295
:1049E00095E00E942F098AE090E0A0E0B0E080937B
:1049F000290590932A05A0932B05B0932C0561E01F
:104A00008BE00E94A60262E082E00E94A60262E0C1
:104A100083E00E94A60280E190E00197F1F70E94F6
:104A20005402019781F1C9E0D0E090E1E92EF12C28
:104A30000E945402892BA1F460E083E00E94780276
:104A400061E083E00E94A602C7010197F1F762E0EE
:104A500083E00E94A602C7010197F1F7219741F771
:104A600060E082E00E94780261E082E00E94A6029B
:104A7000C0E1D0E0CE010197F1F762E082E00E9450
:104A8000A6022197F1F7109233031092320310928D
:104A90006104109283040E944D068AEB93E0909388
:104AA000C4028093C3028BEB93E09093C202809385
:104AB000C1021092C00288EA91E6A0E0B0E08093C3
:104AC0005C0490935D04A0935E04B0935F0481E066
:104AD00080935B0486E70E941A018EE190E00E94B9
:104AE0002A080E9497076AE070E080E090E00E9448
:104AF0006C0381EEE82E84E0F82EC0EAD0E086E771
:104B00000E941A01CE010E942A080E94970721E004
:104B100042E066E784ED94E00E94F70C0E94A60153
:104B2000D82E0E94A60100E0802B9D29F7018193D9
:104B300091937F012296CE3AD10509F78091E10445
:104B40009091E2049F709093E2048093E1041092AC
:104B5000F0041092EF041092010580E090EAA0E8C2
:104B6000B4E48093020590930305A0930405B093E9
:104B700005051092330310923203109261041092D3
:104B800083040E944D0680E00E948F0E66E480E060
:104B90000E942F0881E00E948F0E82E00E948F0EFB
:104BA00083E00E948F0E88E00E948F0E6DE081E00E
:104BB0000E942F086FE382E00E942F0860E083E0EC
:104BC0000E942F0881E00E948F0E82E00E948F0ECB
:104BD00083E00E948F0E44E560E08EEF0E940D0896
:104BE00040E060E486E00E940D0880E00E94160B21
:104BF0008FEF9FEF9093910480939004C5E0D0E0F5
:104C0000A89564EF71E080E090E00E946C0381E081
:104C10000E94380B64EF71E080E090E00E946C032A
:104C200080E00E94380B219759F788E198E20FB68F
:104C3000F894A895809360000FBE9093600064E69E
:104C400070E080E090E00E946C03809122019091DE
:104C500023010E94BF0B00E010E0C1E0A895809105
:104C6000DF0281110CC00E94AE036093FC027093BE
:104C7000FD028093FE029093FF02C093DF028091B9
:104C8000C90281110CC00E94AE036093C5027093EB
:104C9000C6028093C7029093C802C093C9020E94C3
:104CA000AE03C090C502D090C602E090C702F0905B
:104CB000C8026C197D098E099F09613A7F40810500
:104CC0009105F8F00E94AE036093C5027093C6028E
:104CD0008093C7029093C80280E00E94160B62E3A3
:104CE00070E080E090E00E946C0381E00E94160B6F
:104CF00062E370E080E090E00E946C0380E00E943C
:104D0000160B80912201909123018330910509F4C3
:104D10007BC068F481309105C9F0029709F455C051
:104D20000115110509F49ACF0E94000097CF853034
:104D3000910509F48AC008F4A3C0069789F70E9478
:104D4000D4140E94550B8111EBCFBEC084E894E0CF
:104D50000E94920518161906B4F00E94AE03C09086
:104D6000FC02D090FD02E090FE02F090FF026C1970
:104D70007D098E099F09693873418105910580F28B
:104D800084E090E01FC08AEB91E00E94040F84E869
:104D900094E00E949205181619067CF484E894E0C9
:104DA0000E9450050E94AE036093FC027093FD02C6
:104DB0008093FE029093FF02EACF80E00E94380BBE
:104DC00082E090E00E94BF0BABCF0E94DE1D0E94EC
:104DD000550B882321F086E090E00E94BF0B0E94D3
:104DE000AE03C090FC02D090FD02E090FE02F09075
:104DF000FF026C197D098E099F096938734181058D
:104E0000910508F48DCFBCCF30E020E050E040E0C9
:104E100069E070E08EED92E00E94A9090E942F0ED9
:104E200020E030E040E251E40E94DA2A18160CF447
:104E3000A7CF0E94F80D2DEC3CEC4CE550E40E940D
:104E4000DA2A18160CF49CCF6BCF0E94901D8111AA
:104E500004C084E090E00E94BF0B84E894E00E94CC
:104E600092051816190624F481E090E00E94BF0B09
:104E70000E94550B882309F453CF86E090E0A2CF1F
:104E80008091DD02882319F10E94AE03C090D902FF
:104E9000D090DA02E090DB02F090DC026C197D0920
:104EA0008E099F09603A7F408105910580F48091C9
:104EB000D802882309F449C084E894E00E9492054E
:104EC000181619060CF02CCF81E090E07BCFC09330
:104ED000DD020E94AE036093D9027093DA028093E0
:104EE000DB029093DC020E94F80D6B017C010E94B2
:104EF0002F0E4B015C0120E030E040E250E4C7019E
:104F0000B6010E94132887FF3EC01092D70210926C
:104F1000D6028091D502811122C0C093D5020E9491
:104F2000AE036093D1027093D2028093D302909328
:104F3000D40244E560E08EEF0E940D0840E060E49A
:104F400086E00E940D081092D8020E940615882360
:104F500009F4B2CF85E090E00E94BF0BADCF0E9474
:104F6000AE03C090D102D090D202E090D302F09074
:104F7000D4026C197D098E099F096033754781053C
:104F8000910558F6E0CF20E030E040E251E4C50161
:104F9000B4010E941328181654F42DEC3CEC4CE597
:104FA00050E4C701B6010E9413281816C4F080917E
:104FB000D6029091D7028530910528F401969093FE
:104FC000D7028093D60281E02091D6023091D70299
:104FD0002530310508F480E08093D8026ACF109222
:104FE000D7021092D602EFCFCF93DF93CDE3D1E07B
:104FF000D0930705C093060586E095E00E94F0086F
:10500000D0932605C093250585E295E0DF91CF91E9
:105010000C94F00891110C94E628803219F0895014
:105020008550C8F708950E94552808F481E0089536
:10503000E89409C097FB3EF4909580957095619532
:105040007F4F8F4F9F4F9923A9F0F92F96E9BB27E8
:105050009395F695879577956795B795F111F8CF64
:10506000FAF4BB0F11F460FF1BC06F5F7F4F8F4FCF
:105070009F4F16C0882311F096E911C0772321F0C5
:105080009EE8872F762F05C0662371F096E8862F5D
:1050900070E060E02AF09A95660F771F881FDAF7B4
:1050A000880F9695879597F90895990F0008550FE1
:1050B000AA0BE0E8FEEF16161706E807F907C0F09E
:1050C00012161306E407F50798F0621B730B840BA6
:1050D000950B39F40A2661F0232B242B252B21F480
:1050E00008950A2609F4A140A6958FEF811D811D20
:1050F00008950E948C280C9400290E94F22838F010
:105100000E94F92820F0952311F00C94E9280C94C2
:10511000EF2811240C9434290E94112970F3959FD3
:10512000C1F3950F50E0551F629FF001729FBB279E
:10513000F00DB11D639FAA27F00DB11DAA1F649F3A
:105140006627B00DA11D661F829F2227B00DA11DED
:10515000621F739FB00DA11D621F839FA00D611D73
:10516000221F749F3327A00D611D231F849F600D94
:10517000211D822F762F6A2F11249F5750409AF0BD
:10518000F1F088234AF0EE0FFF1FBB1F661F771F49
:10519000881F91505040A9F79E3F510580F00C9414
:1051A000E9280C9434295F3FE4F3983ED4F38695C4
:1051B00077956795B795F795E7959F5FC1F7FE2BB4
:1051C000880F911D9695879597F9089599278827B7
:1051D000089597F99F6780E870E060E008959FEF79
:1051E00080EC089500240A9416161706180609067E
:1051F000089500240A94121613061406050608954D
:10520000092E0394000C11F4882352F0BB0F40F4D4
:10521000BF2B11F460FF04C06F5F7F4F8F4F9F4F14
:10522000089557FD9058440F551F59F05F3F71F096
:105230004795880F97FB991F61F09F3F79F08795FD
:105240000895121613061406551FF2CF4695F1DF86
:1052500008C0161617061806991FF1CF8695710516
:10526000610508940895E894BB2766277727CB014A
:1052700097F90895052E97FB1EF400940E9451297A
:1052800057FD07D00E949B2907FC03D04EF40C94D5
:10529000512950954095309521953F4F4F4F5F4F85
:1052A000089590958095709561957F4F8F4F9F4F92
:1052B00008950E94BD29A59F900DB49F900DA49FB5
:1052C000800D911D112408952F923F924F925F926D
:1052D0006F927F928F929F92AF92BF92CF92DF9206
:1052E000EF92FF920F931F93CF93DF93CDB7DEB76B
:1052F000CA1BDB0B0FB6F894DEBF0FBECDBF0994FF
:105300002A88398848885F846E847D848C849B8455
:10531000AA84B984C884DF80EE80FD800C811B8163
:10532000AA81B981CE0FD11D0FB6F894DEBF0FBE92
:10533000CDBFED010895A1E21A2EAA1BBB1BFD01F2
:105340000DC0AA1FBB1FEE1FFF1FA217B307E40764
:10535000F50720F0A21BB30BE40BF50B661F771FBC
:10536000881F991F1A9469F760957095809590959C
:105370009B01AC01BD01CF010895A29FB001B39F75
:10538000C001A39F700D811D1124911DB29F700D4E
:10539000811D1124911D08955058BB27AA270E94F2
:1053A000E4290C9400290E94F22838F00E94F92880
:1053B00020F039F49F3F19F426F40C94EF280EF4F2
:1053C000E095E7FB0C94E928E92F0E94112958F396
:1053D000BA17620773078407950720F079F4A6F5DA
:1053E0000C9433290EF4E0950B2EBA2FA02D0B014F
:1053F000B90190010C01CA01A0011124FF27591B1A
:1054000099F0593F50F4503E68F11A16F040A22F1F
:10541000232F342F4427585FF3CF46953795279590
:10542000A795F0405395C9F77EF41F16BA0B620B8F
:10543000730B840BBAF09150A1F0FF0FBB1F661FD6
:10544000771F881FC2F70EC0BA0F621F731F841F19
:1054500048F4879577956795B795F7959E3F08F03F
:10546000B0CF9395880F08F09927EE0F9795879501
:1054700008950E944D2A0C9400290E94F92858F0A2
:105480000E94F22840F029F45F3F29F00C94E928AB
:1054900051110C9434290C94EF280E94112968F3BF
:1054A0009923B1F3552391F3951B550BBB27AA27DD
:1054B00062177307840738F09F5F5F4F220F331F17
:1054C000441FAA1FA9F335D00E2E3AF0E0E832D0DF
:1054D00091505040E695001CCAF72BD0FE2F29D0E2
:1054E000660F771F881FBB1F261737074807AB07B4
:1054F000B0E809F0BB0B802DBF01FF2793585F4F29
:105500003AF09E3F510578F00C94E9280C94342928
:105510005F3FE4F3983ED4F3869577956795B7950A
:10552000F7959F5FC9F7880F911D9695879597F915
:105530000895E1E0660F771F881FBB1F621773078E
:105540008407BA0720F0621B730B840BBA0BEE1FA3
:1055500088F7E09508950E94192988F09F5798F0E0
:10556000B92F9927B751B0F0E1F0660F771F881F68
:10557000991F1AF0BA95C9F714C0B13091F00E9482
:105580003329B1E008950C943329672F782F8827A9
:10559000B85F39F0B93FCCF3869577956795B395A9
:1055A000D9F73EF490958095709561957F4F8F4F18
:1055B0009F4F08950E94552808F48FEF08950E9488
:1055C0005528880B990B0895DB018F939F930E94B8
:1055D0005929BF91AF91A29F800D911DA39F900D5E
:1055E000B29F900D11240895991B79E004C0991F72
:1055F000961708F0961B881F7A95C9F7809508952D
:10560000AA1BBB1B51E107C0AA1FBB1FA617B707E8
:1056100010F0A61BB70B881F991F5A95A9F7809504
:105620009095BC01CD010895EE0FFF1F0590F491F8
:10563000E02D09940E94BD29B7FF0895821B930BAA
:105640000895DF93CF931F930F939A9DF02D219F81
:10565000F00D8B9DF00D8A9DE02DF10D039FF00D57
:10566000029FE00DF11D4E9DE00DF11D5E9DF00DC0
:105670004F9DF00D7F936F93BF92AF925F934F93C7
:10568000D5010E94BD298B01AC01D7010E94BD2923
:10569000EB01E80FF91FD6010E94702B2F913F916B
:1056A000D6010E94BD29C60FD71FE81FF91FAF9171
:1056B000BF910E94702B2F913F910E94BD29C60F70
:1056C000D71FE81FF91FD6010E94BD29E60FF71F5B
:1056D0009801BE01CF010F911F91CF91DF910895E5
:1056E0000E94BD29460F571FC81FD91F08F43196C5
:1056F000089597FB57FF0C94892B9F938F930E94DB
:10570000892B6E1B7F0BAF91BF918A0B9B0B08956A
:10571000E894DF93CF93FC01DB010E94BD297F93C6
:105720006F93E9019A01AC01BF93AF933F932F931D
:10573000DF010E94BD2926F46C1B7D0B820B930BAD
:105740009E01EB01FC010E94702BAF91BF912F9144
:105750003F910E94702BBE01CF01F9012F913F9123
:10576000CF91DF910895002E083090F0982F872F69
:10577000762F652F542F432F322F22270850F4CF36
:10578000220F331F441F551F661F771F881F991F45
:105790000A95B2F7002D089597FD1094002E083059
:1057A00098F00850232F342F452F562F672F782F2E
:1057B000892F912DF4CF15949795879577956795B7
:1057C00057954795379527950A95AAF71124002DE7
:1057D00008952A0D3B1D4C1D5D1D6E1D7F1D801FF4
:1057E000911F08950024A7FD00942A0F301D401D2D
:1057F000501D601D701D801D901D08952A193B09C4
:105800004C095D096E097F09800B910B08950024F6
:10581000A7FD00942A173005400550056005700566
:105820008005900508950F931F93CF93DF938230E7
:10583000910510F482E090E0E0914C05F0914D0567
:1058400030E020E0B0E0A0E0309799F42115310578
:1058500009F44AC0281B390B24303105D8F58A8158
:105860009B816115710589F1FB0193838283FE01A0
:1058700011C0408151810281138148175907E0F01E
:105880004817590799F4109761F012960C931297E4
:1058900013961C933296CF01DF91CF911F910F91F8
:1058A000089500934C0510934D05F4CF2115310553
:1058B00051F04217530738F0A901DB019A01BD01ED
:1058C000DF01F801C1CFEF01F9CF90934D0580932F
:1058D0004C05CDCFFE01E20FF31F8193919322502F
:1058E000310939832883D7CF20914A0530914B0560
:1058F000232B41F420912E0130912F0130934B0541
:1059000020934A0520912C0130912D01211531055C
:1059100041F42DB73EB74091300150913101241B25
:10592000350BE0914A05F0914B05E217F307A0F41F
:105930002E1B3F0B2817390778F0AC014E5F5F4FE5
:105940002417350748F04E0F5F1F50934B054093C7
:105950004A05819391939FCFF0E0E0E09CCFCF93F5
:10596000DF930097E9F0FC01329713821282A09135
:105970004C05B0914D05ED0130E020E01097A1F409
:1059800020813181820F931F20914A0530914B0570
:105990002817390709F061C0F0934B05E0934A05D9
:1059A000DF91CF910895EA01CE17DF07E8F54A812C
:1059B0005B819E0141155105B1F7E901FB83EA8343
:1059C00049915991C40FD51FEC17FD0761F48081EF
:1059D00091810296840F951FE901998388838281C2
:1059E00093819B838A83F0E0E0E012968D919C91F5
:1059F00013970097B9F52D913C911197CD0102961F
:105A0000820F931F20914A0530914B0528173907C3
:105A100039F6309751F510924D0510924C05B09320
:105A20004B05A0934A05BCCFD383C28340815181EB
:105A3000840F951FC817D90761F44E5F5F4F8881A7
:105A40009981480F591F518340838A819B81938399
:105A500082832115310509F0B0CFF0934D05E09315
:105A60004C059ECFFD01DC01C0CF13821282D7CF3F
:105A7000B0E0A0E0EEE3FDE20C9466298C01009713
:105A800051F4CB010E94132C8C01C801CDB7DEB7B5
:105A9000E0E10C948229FC01E60FF71F9C012250E3
:105AA0003109E217F30708F49DC0D901CD91DC91CB
:105AB0001197C617D70798F0C530D10530F3CE013E
:105AC00004978617970708F3C61BD70B2297C19335
:105AD000D1936D937C93CF010E94AF2CD6CF5B0105
